{
  "_format": "hh-sol-artifact-1",
  "contractName": "Crowdfunding",
  "sourceName": "contracts/Crowdfunding.sol",
  "abi": [
    {
      "inputs": [
        {
          "internalType": "uint256",
          "name": "",
          "type": "uint256"
        }
      ],
      "name": "campaigns",
      "outputs": [
        {
          "internalType": "address",
          "name": "owner",
          "type": "address"
        },
        {
          "internalType": "string",
          "name": "title",
          "type": "string"
        },
        {
          "internalType": "string",
          "name": "description",
          "type": "string"
        },
        {
          "internalType": "uint256",
          "name": "target",
          "type": "uint256"
        },
        {
          "internalType": "uint256",
          "name": "amountCollected",
          "type": "uint256"
        },
        {
          "internalType": "uint256",
          "name": "deadline",
          "type": "uint256"
        }
      ],
      "stateMutability": "view",
      "type": "function"
    },
    {
      "inputs": [
        {
          "internalType": "address",
          "name": "_owner",
          "type": "address"
        },
        {
          "internalType": "string",
          "name": "_title",
          "type": "string"
        },
        {
          "internalType": "string",
          "name": "_description",
          "type": "string"
        },
        {
          "internalType": "uint256",
          "name": "target",
          "type": "uint256"
        },
        {
          "internalType": "uint256",
          "name": "deadline",
          "type": "uint256"
        }
      ],
      "name": "createCampaign",
      "outputs": [
        {
          "internalType": "uint256",
          "name": "",
          "type": "uint256"
        }
      ],
      "stateMutability": "nonpayable",
      "type": "function"
    },
    {
      "inputs": [
        {
          "internalType": "uint256",
          "name": "_id",
          "type": "uint256"
        }
      ],
      "name": "donateToCampaign",
      "outputs": [],
      "stateMutability": "payable",
      "type": "function"
    },
    {
      "inputs": [],
      "name": "getCampaigns",
      "outputs": [
        {
          "components": [
            {
              "internalType": "address",
              "name": "owner",
              "type": "address"
            },
            {
              "internalType": "string",
              "name": "title",
              "type": "string"
            },
            {
              "internalType": "string",
              "name": "description",
              "type": "string"
            },
            {
              "internalType": "uint256",
              "name": "target",
              "type": "uint256"
            },
            {
              "internalType": "uint256",
              "name": "amountCollected",
              "type": "uint256"
            },
            {
              "internalType": "uint256",
              "name": "deadline",
              "type": "uint256"
            },
            {
              "internalType": "address[]",
              "name": "donors",
              "type": "address[]"
            },
            {
              "internalType": "uint256[]",
              "name": "donations",
              "type": "uint256[]"
            }
          ],
          "internalType": "struct Crowdfunding.campaign[]",
          "name": "",
          "type": "tuple[]"
        }
      ],
      "stateMutability": "view",
      "type": "function"
    },
    {
      "inputs": [
        {
          "internalType": "uint256",
          "name": "_id",
          "type": "uint256"
        }
      ],
      "name": "getDonors",
      "outputs": [
        {
          "internalType": "address[]",
          "name": "",
          "type": "address[]"
        },
        {
          "internalType": "uint256[]",
          "name": "",
          "type": "uint256[]"
        }
      ],
      "stateMutability": "view",
      "type": "function"
    },
    {
      "inputs": [],
      "name": "numberOfCampaigns",
      "outputs": [
        {
          "internalType": "uint256",
          "name": "",
          "type": "uint256"
        }
      ],
      "stateMutability": "view",
      "type": "function"
    }
  ],
  "bytecode": "0x6080604052600060015534801561001557600080fd5b50611796806100256000396000f3fe6080604052600436106100555760003560e01c8063075843c31461005a57806307ca140d14610097578063141961bc146100c2578063295165111461010457806342a4fda814610142578063a6b036331461015e575b600080fd5b34801561006657600080fd5b50610081600480360381019061007c9190610c11565b610189565b60405161008e9190610cd3565b60405180910390f35b3480156100a357600080fd5b506100ac61029f565b6040516100b99190610cd3565b60405180910390f35b3480156100ce57600080fd5b506100e960048036038101906100e49190610cee565b6102a5565b6040516100fb96959493929190610da9565b60405180910390f35b34801561011057600080fd5b5061012b60048036038101906101269190610cee565b610411565b604051610139929190610f94565b60405180910390f35b61015c60048036038101906101579190610cee565b610521565b005b34801561016a57600080fd5b50610173610684565b604051610180919061127a565b60405180910390f35b6000806000806001548152602001908152602001600020905060004290508084116101e9576040517f08c379a00000000000000000000000000000000000000000000000000000000081526004016101e09061130e565b60405180910390fd5b878260000160006101000a81548173ffffffffffffffffffffffffffffffffffffffff021916908373ffffffffffffffffffffffffffffffffffffffff1602179055508682600101908161023d919061153a565b508582600201908161024f919061153a565b50848260030181905550838260050181905550600082600401819055506001600081548092919061027f9061163b565b9190505550600180546102929190611683565b9250505095945050505050565b60015481565b60006020528060005260406000206000915090508060000160009054906101000a900473ffffffffffffffffffffffffffffffffffffffff16908060010180546102ee9061135d565b80601f016020809104026020016040519081016040528092919081815260200182805461031a9061135d565b80156103675780601f1061033c57610100808354040283529160200191610367565b820191906000526020600020905b81548152906001019060200180831161034a57829003601f168201915b50505050509080600201805461037c9061135d565b80601f01602080910402602001604051908101604052809291908181526020018280546103a89061135d565b80156103f55780601f106103ca576101008083540402835291602001916103f5565b820191906000526020600020905b8154815290600101906020018083116103d857829003601f168201915b5050505050908060030154908060040154908060050154905086565b606080600080848152602001908152602001600020600601600080858152602001908152602001600020600701818054806020026020016040519081016040528092919081815260200182805480156104bf57602002820191906000526020600020905b8160009054906101000a900473ffffffffffffffffffffffffffffffffffffffff1673ffffffffffffffffffffffffffffffffffffffff1681526020019060010190808311610475575b505050505091508080548060200260200160405190810160405280929190818152602001828054801561051157602002820191906000526020600020905b8154815260200190600101908083116104fd575b5050505050905091509150915091565b60003490506000806000848152602001908152602001600020905080600601339080600181540180825580915050600190039060005260206000200160009091909190916101000a81548173ffffffffffffffffffffffffffffffffffffffff021916908373ffffffffffffffffffffffffffffffffffffffff1602179055508060070182908060018154018082558091505060019003906000526020600020016000909190919091505560008160000160009054906101000a900473ffffffffffffffffffffffffffffffffffffffff1673ffffffffffffffffffffffffffffffffffffffff1683604051610616906116e8565b60006040518083038185875af1925050503d8060008114610653576040519150601f19603f3d011682016040523d82523d6000602084013e610658565b606091505b50509050801561067e578282600401600082825461067691906116fd565b925050819055505b50505050565b6060600060015467ffffffffffffffff8111156106a4576106a3610ab0565b5b6040519080825280602002602001820160405280156106dd57816020015b6106ca6109c8565b8152602001906001900390816106c25790505b50905060005b6001548110156109c0576000806000838152602001908152602001600020905080604051806101000160405290816000820160009054906101000a900473ffffffffffffffffffffffffffffffffffffffff1673ffffffffffffffffffffffffffffffffffffffff1673ffffffffffffffffffffffffffffffffffffffff1681526020016001820180546107769061135d565b80601f01602080910402602001604051908101604052809291908181526020018280546107a29061135d565b80156107ef5780601f106107c4576101008083540402835291602001916107ef565b820191906000526020600020905b8154815290600101906020018083116107d257829003601f168201915b505050505081526020016002820180546108089061135d565b80601f01602080910402602001604051908101604052809291908181526020018280546108349061135d565b80156108815780601f1061085657610100808354040283529160200191610881565b820191906000526020600020905b81548152906001019060200180831161086457829003601f168201915b505050505081526020016003820154815260200160048201548152602001600582015481526020016006820180548060200260200160405190810160405280929190818152602001828054801561092d57602002820191906000526020600020905b8160009054906101000a900473ffffffffffffffffffffffffffffffffffffffff1673ffffffffffffffffffffffffffffffffffffffff16815260200190600101908083116108e3575b505050505081526020016007820180548060200260200160405190810160405280929190818152602001828054801561098557602002820191906000526020600020905b815481526020019060010190808311610971575b5050505050815250508383815181106109a1576109a0611731565b5b60200260200101819052505080806109b89061163b565b9150506106e3565b508091505090565b604051806101000160405280600073ffffffffffffffffffffffffffffffffffffffff168152602001606081526020016060815260200160008152602001600081526020016000815260200160608152602001606081525090565b6000604051905090565b600080fd5b600080fd5b600073ffffffffffffffffffffffffffffffffffffffff82169050919050565b6000610a6282610a37565b9050919050565b610a7281610a57565b8114610a7d57600080fd5b50565b600081359050610a8f81610a69565b92915050565b600080fd5b600080fd5b6000601f19601f8301169050919050565b7f4e487b7100000000000000000000000000000000000000000000000000000000600052604160045260246000fd5b610ae882610a9f565b810181811067ffffffffffffffff82111715610b0757610b06610ab0565b5b80604052505050565b6000610b1a610a23565b9050610b268282610adf565b919050565b600067ffffffffffffffff821115610b4657610b45610ab0565b5b610b4f82610a9f565b9050602081019050919050565b82818337600083830152505050565b6000610b7e610b7984610b2b565b610b10565b905082815260208101848484011115610b9a57610b99610a9a565b5b610ba5848285610b5c565b509392505050565b600082601f830112610bc257610bc1610a95565b5b8135610bd2848260208601610b6b565b91505092915050565b6000819050919050565b610bee81610bdb565b8114610bf957600080fd5b50565b600081359050610c0b81610be5565b92915050565b600080600080600060a08688031215610c2d57610c2c610a2d565b5b6000610c3b88828901610a80565b955050602086013567ffffffffffffffff811115610c5c57610c5b610a32565b5b610c6888828901610bad565b945050604086013567ffffffffffffffff811115610c8957610c88610a32565b5b610c9588828901610bad565b9350506060610ca688828901610bfc565b9250506080610cb788828901610bfc565b9150509295509295909350565b610ccd81610bdb565b82525050565b6000602082019050610ce86000830184610cc4565b92915050565b600060208284031215610d0457610d03610a2d565b5b6000610d1284828501610bfc565b91505092915050565b610d2481610a57565b82525050565b600081519050919050565b600082825260208201905092915050565b60005b83811015610d64578082015181840152602081019050610d49565b60008484015250505050565b6000610d7b82610d2a565b610d858185610d35565b9350610d95818560208601610d46565b610d9e81610a9f565b840191505092915050565b600060c082019050610dbe6000830189610d1b565b8181036020830152610dd08188610d70565b90508181036040830152610de48187610d70565b9050610df36060830186610cc4565b610e006080830185610cc4565b610e0d60a0830184610cc4565b979650505050505050565b600081519050919050565b600082825260208201905092915050565b6000819050602082019050919050565b610e4d81610a57565b82525050565b6000610e5f8383610e44565b60208301905092915050565b6000602082019050919050565b6000610e8382610e18565b610e8d8185610e23565b9350610e9883610e34565b8060005b83811015610ec9578151610eb08882610e53565b9750610ebb83610e6b565b925050600181019050610e9c565b5085935050505092915050565b600081519050919050565b600082825260208201905092915050565b6000819050602082019050919050565b610f0b81610bdb565b82525050565b6000610f1d8383610f02565b60208301905092915050565b6000602082019050919050565b6000610f4182610ed6565b610f4b8185610ee1565b9350610f5683610ef2565b8060005b83811015610f87578151610f6e8882610f11565b9750610f7983610f29565b925050600181019050610f5a565b5085935050505092915050565b60006040820190508181036000830152610fae8185610e78565b90508181036020830152610fc28184610f36565b90509392505050565b600081519050919050565b600082825260208201905092915050565b6000819050602082019050919050565b600082825260208201905092915050565b600061101382610d2a565b61101d8185610ff7565b935061102d818560208601610d46565b61103681610a9f565b840191505092915050565b600082825260208201905092915050565b600061105d82610e18565b6110678185611041565b935061107283610e34565b8060005b838110156110a357815161108a8882610e53565b975061109583610e6b565b925050600181019050611076565b5085935050505092915050565b600082825260208201905092915050565b60006110cc82610ed6565b6110d681856110b0565b93506110e183610ef2565b8060005b838110156111125781516110f98882610f11565b975061110483610f29565b9250506001810190506110e5565b5085935050505092915050565b6000610100830160008301516111386000860182610e44565b50602083015184820360208601526111508282611008565b9150506040830151848203604086015261116a8282611008565b915050606083015161117f6060860182610f02565b5060808301516111926080860182610f02565b5060a08301516111a560a0860182610f02565b5060c083015184820360c08601526111bd8282611052565b91505060e083015184820360e08601526111d782826110c1565b9150508091505092915050565b60006111f0838361111f565b905092915050565b6000602082019050919050565b600061121082610fcb565b61121a8185610fd6565b93508360208202850161122c85610fe7565b8060005b85811015611268578484038952815161124985826111e4565b9450611254836111f8565b925060208a01995050600181019050611230565b50829750879550505050505092915050565b600060208201905081810360008301526112948184611205565b905092915050565b7f446561646c696e652073686f756c642062652061206461746520696e2074686560008201527f2066757475726500000000000000000000000000000000000000000000000000602082015250565b60006112f8602783610d35565b91506113038261129c565b604082019050919050565b60006020820190508181036000830152611327816112eb565b9050919050565b7f4e487b7100000000000000000000000000000000000000000000000000000000600052602260045260246000fd5b6000600282049050600182168061137557607f821691505b6020821081036113885761138761132e565b5b50919050565b60008190508160005260206000209050919050565b60006020601f8301049050919050565b600082821b905092915050565b6000600883026113f07fffffffffffffffffffffffffffffffffffffffffffffffffffffffffffffffff826113b3565b6113fa86836113b3565b95508019841693508086168417925050509392505050565b6000819050919050565b600061143761143261142d84610bdb565b611412565b610bdb565b9050919050565b6000819050919050565b6114518361141c565b61146561145d8261143e565b8484546113c0565b825550505050565b600090565b61147a61146d565b611485818484611448565b505050565b5b818110156114a95761149e600082611472565b60018101905061148b565b5050565b601f8211156114ee576114bf8161138e565b6114c8846113a3565b810160208510156114d7578190505b6114eb6114e3856113a3565b83018261148a565b50505b505050565b600082821c905092915050565b6000611511600019846008026114f3565b1980831691505092915050565b600061152a8383611500565b9150826002028217905092915050565b61154382610d2a565b67ffffffffffffffff81111561155c5761155b610ab0565b5b611566825461135d565b6115718282856114ad565b600060209050601f8311600181146115a45760008415611592578287015190505b61159c858261151e565b865550611604565b601f1984166115b28661138e565b60005b828110156115da578489015182556001820191506020850194506020810190506115b5565b868310156115f757848901516115f3601f891682611500565b8355505b6001600288020188555050505b505050505050565b7f4e487b7100000000000000000000000000000000000000000000000000000000600052601160045260246000fd5b600061164682610bdb565b91507fffffffffffffffffffffffffffffffffffffffffffffffffffffffffffffffff82036116785761167761160c565b5b600182019050919050565b600061168e82610bdb565b915061169983610bdb565b92508282039050818111156116b1576116b061160c565b5b92915050565b600081905092915050565b50565b60006116d26000836116b7565b91506116dd826116c2565b600082019050919050565b60006116f3826116c5565b9150819050919050565b600061170882610bdb565b915061171383610bdb565b925082820190508082111561172b5761172a61160c565b5b92915050565b7f4e487b7100000000000000000000000000000000000000000000000000000000600052603260045260246000fdfea2646970667358221220db7512b3e1ada27689f73d86892567ee730c3bc455ae0ed0e577ec54af4f55f964736f6c63430008130033",
  "linkReferences": {},
  "deployedLinkReferences": {}
}